:100000000C942A000C9485010C9447000C94470032
:100010000C9447000C9447000C9447000C94470044
:100020000C9447000C9447000C941A010C94470060
:100030000C9447000C9447000C9447000C94470024
:100040000C9447000C9447000C9447000C94470014
:100050000C94470011241FBECFE5D8E0DEBFCDBF12
:1000600011E0A0E6B0E0E4EBF3E102C005900D92F0
:10007000A438B107D9F711E0A4E8B1E001C01D929E
:10008000AA38B107E1F70E9478090C94D8090C94BA
:10009000000087E689B980B5806880BD80B580683A
:1000A00080BD80B58F7B80BD80B5806880BD80B508
:1000B0008F7E80BD80B58F7D80BD80B5806880BD1E
:1000C00080B5877F80BD80B5806880BD80B5826047
:1000D00080BD80B5846080BD5298549A539A08952B
:1000E0005D9BFECF8CB908955F9BFECF8CB10895C8
:1000F0000F931F93082F9B018FB58E7F8FBD8FB5F8
:1001000082608FBD8FB588608FBD8FB580618FBDD8
:100110008FB580648FBD8FB580618FBD8FB58068CE
:100120008FBD8FB580628FBD40E050E060E074E22B
:1001300084EF90E00E949B09DA01C9012150304010
:1001400064E670E00E94870910E0609FC001619F33
:10015000900D709F900D11249BBD8ABD37BD26BDAB
:100160001F910F91089584E065E041E00E9416021E
:1001700084E065E041E00E94DC0281E060E041E073
:100180000E94160281E060E041E00E94DC0281E012
:1001900061E041E00E94160281E061E040E00E94DF
:1001A000DC0281E062E041E00E94160281E062E050
:1001B00041E00E94DC0281E063E041E00E9416021F
:1001C00081E063E040E00E94DC02089589EF8CBF8B
:1001D00083B78F7B83BF83B7886083BF89B7826013
:1001E00089BF8FB780688FBF83B7816083BF83B7B4
:1001F000826083BF83B78B7F83BF0895AC0189B7CB
:100200008D7F89BF209188013091890108C008B68F
:1002100001FEFDCF88B7826088BF2F5F3F4F241754
:100220003507A9F789B7826089BF109289011092BA
:10023000880108951F920F920FB60F9211248F9389
:100240009F938091840190918501019690938501FF
:10025000809384019F918F910F900FBE0F901F90FC
:10026000189582E060E043E00E9416020895779BB3
:10027000FECF8FB908956F9BFECF8FB1089582E0B6
:1002800065E041E00E94160282E067E041E00E94E2
:10029000160282E064E041E00E94160282E066E01D
:1002A00043E00E94160282E064E040E00E94DC022B
:1002B0006C9A8FB780688FBF6F9A6E9A6D986B98A3
:1002C0006A98689A699A709808958A988B98BA98EB
:1002D0008FB780688FBF08958BB780648BBF8BB753
:1002E00080688BBF8BB78F7D8BBF85B7816085BFE3
:1002F00085B7826085BF85B78B7F85BF85B78860EE
:1003000085BF84B7806484BF08951F920F920FB693
:100310000F9211242F933F934F935F936F937F938B
:100320008F939F93AF93BF93EF93FF9383E062E02C
:100330000E948E03FF91EF91BF91AF919F918F919A
:100340007F916F915F914F913F912F910F900FBED1
:100350000F901F9018958230B9F0833018F48130D7
:10036000D9F505C08330E9F08430B1F527C062309B
:1003700039F0633039F0613079F58FEF8BBB089538
:100380008FEF8BBB1BBA0895623039F0633039F0C0
:10039000613011F58FEF88BB08958FEF88BB18BAD5
:1003A0000895623039F0633039F06130A9F48FEF8D
:1003B00085BB08958FEF85BB15BA0895623039F07B
:1003C000633049F0613041F48FEF82BB08958FEFC5
:1003D00082BB12BA089512BA0895823061F0833058
:1003E00018F4813069F405C0833039F0843041F469
:1003F00006C06BBB089568BB089565BB089562BBDA
:100400000895823069F0833018F4813029F406C0F1
:10041000833041F0843041F080E0089589B308953D
:1004200086B3089583B3089580B308958230D9F1D7
:10043000833020F4813009F0BEC007C0833009F456
:1004400060C0843009F0B7C08AC0423081F04330C8
:10045000F1F0413009F0AFC02AB381E090E002C072
:10046000880F991F6A95E2F7282B2ABB08953AB3A3
:1004700081E090E002C0880F991F6A95E2F7282F6B
:10048000209523232ABB2BB3822B8BBB08952AB341
:1004900081E090E002C0880F991F6A95E2F780958D
:1004A00082238ABB0895423081F04330F1F041301D
:1004B00009F081C027B381E090E002C0880F991F46
:1004C0006A95E2F7282B27BB089537B381E090E0C7
:1004D00002C0880F991F6A95E2F7282F20952323E1
:1004E00027BB28B3822B88BB089527B381E090E017
:1004F00002C0880F991F6A95E2F78095822387BB17
:100500000895423081F04330F1F0413009F053C09A
:1005100024B381E090E002C0880F991F6A95E2F74A
:10052000282B24BB089534B381E090E002C0880FEB
:10053000991F6A95E2F7282F2095232324BB25B322
:10054000822B85BB089524B381E090E002C0880F20
:10055000991F6A95E2F78095822384BB0895423003
:1005600079F04330E9F0413031F521B381E090E09A
:1005700002C0880F991F6A95E2F7282B21BB0895C6
:1005800031B381E090E002C0880F991F6A95E2F7CD
:10059000282F2095232321BB22B3822B82BB0895D1
:1005A00021B381E090E002C0880F991F6A95E2F7BD
:1005B0008095822381BB0895823049F1833020F4F5
:1005C000813009F075C007C0833009F43CC0843025
:1005D00009F06EC053C0442371F0413009F068C087
:1005E0002BB381E090E002C0880F991F6A95E2F773
:1005F000282B2BBB08952BB381E090E002C0880F1D
:10060000991F6A95E2F7809582238BBB0895442356
:1006100071F0413009F04CC028B381E090E002C095
:10062000880F991F6A95E2F7282B28BB089528B3F5
:1006300081E090E002C0880F991F6A95E2F78095EB
:10064000822388BB0895442369F0413089F525B39E
:1006500081E090E002C0880F991F6A95E2F7282B8D
:1006600025BB089525B381E090E002C0880F991F53
:100670006A95E2F78095822385BB0895442369F04B
:100680004130B1F422B381E090E002C0880F991F9D
:100690006A95E2F7282B22BB089522B381E090E00F
:1006A00002C0880F991F6A95E2F78095822382BB6A
:1006B0000895823069F0833018F4813029F406C03F
:1006C000833041F08430C1F080E0089529B303C045
:1006D00026B301C023B381E090E0062E02C0880F4C
:1006E000991F0A94E2F730E08223932302C0959584
:1006F00087956A95E2F7089520B381E090E0062E91
:1007000002C0880F991F0A94E2F730E082239323F6
:1007100002C0959587956A95E2F708958230A9F011
:10072000833018F4813089F505C08330C9F08430F6
:1007300061F521C02BB381E090E002C0880F991FC2
:100740006A95E2F728272BBB089528B381E090E053
:1007500002C0880F991F6A95E2F7282728BB0895E1
:1007600025B381E090E002C0880F991F6A95E2F7F7
:10077000282725BB089522B381E090E002C0880FAE
:10078000991F6A95E2F7282722BB0895369A0895A3
:100790003D98349A369A349BFECF349A84B195B101
:1007A00090E0089581E060E043E00E9416023898EE
:1007B00039983A983B983C98379A309A319A329ABD
:1007C00033983E9A3F9A089581E060E043E00E94AA
:1007D0001602379A0895EF92FF920F931F93CF93CB
:1007E000DF93E82EF62E00E010E0C0EADFE001C063
:1007F00000E0CE010197F1F78E2D6F2D0E94590375
:10080000882321F41F5F1A3098F306C00F5F0A3067
:1008100010F410E0EECF81E0DF91CF911F910F91A6
:10082000FF90EF9008950E94EB0308951F93CF93DC
:10083000DF93182F82E061E041E00E94DC0282E059
:1008400062E040E00E94DC02C12FD0E0AE014071C6
:10085000507074E0559547957A95E1F781E064E032
:100860000E94DC02AE014072507065E055954795DC
:100870006A95E1F781E065E00E94DC02AE01407418
:10088000507036E0559547953A95E1F781E066E07E
:100890000E94DC02412F441F4427441F81E067E08F
:1008A0000E94DC0282E063E041E00E94DC0288EC0E
:1008B00090E020E931E0F9013197F1F70197D9F79C
:1008C00082E063E040E00E94DC02117081E064E0BD
:1008D000412F0E94DC02AE01427050705595479541
:1008E00081E065E00E94DC02AE01447050705595D5
:1008F00047955595479581E066E00E94DC02C870F7
:10090000D07083E0D595C7958A95E1F781E067E0DF
:100910004C2F0E94DC0282E063E041E00E94DC0296
:1009200088EC90E020E931E0F9013197F1F7019787
:10093000D9F782E063E040E00E94DC02DF91CF91D2
:100940001F9108950F931F93CF93DF93EC0100E461
:100950001CE906C021960E941604C8010197F1F710
:1009600088818823B9F7DF91CF911F910F91089566
:100970001F93CF93DF93182F82E061E040E00E9445
:10098000DC0282E062E040E00E94DC02C12FD0E0A5
:10099000AE014071507094E0559547959A95E1F7F6
:1009A00081E064E00E94DC02AE014072507085E09C
:1009B000559547958A95E1F781E065E00E94DC0254
:1009C000AE0140745070B6E055954795BA95E1F781
:1009D00081E066E00E94DC02412F441F4427441F4F
:1009E00081E067E00E94DC0282E063E041E00E9477
:1009F000DC0288EC90E020E931E0F9013197F1F771
:100A00000197D9F782E063E040E00E94DC021170B8
:100A100081E064E0412F0E94DC02AE014270507020
:100A20005595479581E065E00E94DC02AE01447077
:100A30005070559547955595479581E066E00E9421
:100A4000DC02C870D070E3E0D595C795EA95E1F770
:100A500081E067E04C2F0E94DC0282E063E041E02D
:100A60000E94DC0288EC90E020E931E0F901319746
:100A7000F1F70197D9F782E063E040E00E94DC02E1
:100A8000DF91CF911F910895813011F480E805C066
:100A9000823011F480EC01C080E0603108F4860FF0
:100AA0000E94B804089581E00E94B80408950F934D
:100AB0001F938CED95E020E931E0F9013197F1F7D2
:100AC0000197D9F782E061E041E00E94160282E0DE
:100AD00062E041E00E94160282E063E041E00E9491
:100AE000160281E064E041E00E94160281E065E0C8
:100AF00041E00E94160281E066E041E00E94160299
:100B000081E067E041E00E94160282E063E040E09D
:100B10000E94DC0200E41CE9C8010197F1F7C8015A
:100B20000197F1F782E00E94B804C8010197F1F73C
:100B300088E20E94B804C8010197F1F78EE00E9494
:100B4000B804C8010197F1F781E00E94B804C80118
:100B50000197F1F786E00E94B804C8010197F1F708
:100B60001F910F9108951F93DF93CF93CDB7DEB7F9
:100B700060970FB6F894DEBF0FBECDBFDE011196B1
:100B8000E4E7F1E080E101900D928150E1F714E09B
:100B900083E064E041E00E94DC0283E065E041E044
:100BA0000E94DC0283E066E041E00E94DC0283E018
:100BB00063E041E00E94DC0283E0612F40E00E949C
:100BC000DC0283E060E00E9459038823B9F083E0EF
:100BD00061E00E945903882311F481E00FC083E093
:100BE00062E00E945903882311F482E007C083E089
:100BF00063E00E945903882379F483E090E0880F32
:100C0000991F880F991FFE013196E80FF91FE10F18
:100C1000F11D349780810AC083E0612F41E00E947A
:100C2000DC021F5F183009F0B3CF89E160960FB680
:100C3000F894DEBF0FBECDBFCF91DF911F91089515
:100C400083E064E041E00E94160283E065E041E059
:100C50000E94160283E066E041E00E94160283E0F3
:100C600063E041E00E94160283E063E041E00E94FD
:100C7000DC0283E060E042E00E94160283E061E073
:100C800042E00E94160283E062E042E00E94160207
:100C900083E063E042E00E94160208950F931F93E1
:100CA000DF93CF93CDB7DEB761970FB6F894DEBF71
:100CB0000FBECDBF84E062E00E941304882309F0D8
:100CC00079C00E9457050E9453050E94E4030E94C8
:100CD000D2030E94C6030E94C8038C0184E060E036
:100CE00043E00E94160284E061E041E00E941602A7
:100CF0000E9449001695079516950795802F0E942A
:100D000070000E947400082F81E060E00E9444059A
:100D1000043610F422E005C0043611F023E001C0CF
:100D200020E0AE014F5F5F4FFA0109C0802F6AE0FB
:100D30000E947B099193802F0E947B09082F8E2FA0
:100D4000841B821798F384E063E041E00E9416025E
:100D500084E063E040E00E94DC028A81805D0E94C2
:100D600016048981805D0E94160482E060E00E9482
:100D70004405DE011396E0E6F0E086E001900D9276
:100D80008150E1F7FE01399689E0DF011D928A95D5
:100D9000E9F7CE0103960E94A20482E067E00E9478
:100DA00044050E9420060E94B3058931D1F30E94B8
:100DB0001604F7CF84E062E00E941304813009F04A
:100DC00079CF0E9457050E94530584E063E041E01B
:100DD0000E94160284E063E041E00E94DC026ACFD8
:100DE0000F931F93DF93CF93CDB7DEB7C350D1409E
:100DF0000FB6F894DEBF0FBECDBF0E94570581E04D
:100E000064E00E944405DE011196EFE6F0E088E020
:100E100001900D928150E1F7FE01399687E0DF01E4
:100E20001D928A95E9F7CE0101960E94A20480E303
:100E300095E720E931E0F9013197F1F70197D9F70A
:100E400081E00E94B804FE01E051FF4F9F014EE790
:100E500050E08CE0DA010D90AD01D9010D929D01B9
:100E60008150C1F73C9688E0DF011D928A95E9F731
:100E7000CE0180519F4F0E94A20480E593EC20E9AF
:100E800031E0F9013197F1F70197D9F781E00E943C
:100E9000B804DE015096E2E9F0E080E101900D92A5
:100EA0008150E1F7CE0140960E94A20482E060E00A
:100EB0000E944405DE019096E3EAF0E080E10190B3
:100EC0000D928150E1F7CE0180960E94A2048FEF2F
:100ED0009FEF20E931E0F9013197F1F70197D9F758
:100EE00081E00E94B80481E060E00E944405DE01D8
:100EF000D096E3EBF0E089E001900D928150E1F7AC
:100F0000FE01F99687E0DF011D928A95E9F7CE018F
:100F1000C0960E94A20482E060E00E944405DE01C7
:100F2000A05CBF4FE3ECF0E08BE001900D928150AC
:100F3000E1F785E0FE01E55BFF4FDF011D928A9539
:100F4000E9F7CE01805C9F4F0E94A2048FEF9FEFD4
:100F500020E931E0F9013197F1F70197D9F781E004
:100F60000E94B8040E94200680E197E220E931E067
:100F7000F9013197F1F70197D9F70E94B305182FBE
:100F80008931A1F081E060E00E944405812F0E9438
:100F9000160480E593EC20E931E0F9013197F1F78F
:100FA0000197D9F7123311F401E001C000E081E0AC
:100FB0000E94B8049E01205B3F4FD901E3EDF0E0B1
:100FC0008FE001900D928150E1F7F9011786CE0173
:100FD000805B9F4F0E94A20482E060E00E94440573
:100FE0009E01205A3F4FD901E3EEF0E08EE00190E0
:100FF0000D928150E1F7D9011F961C921E921E9707
:10100000CE01805A9F4F0E94A2048FEF9FEF20E9EC
:1010100031E0F9013197F1F70197D9F781E00E94AA
:10102000B80481E060E00E944405FE01E059FF4FF2
:101030009F0143EF50E085E0DA010D90AD01D90149
:101040000D929D018150C1F735968BE0DF011D9215
:101050008A95E9F7CE0180599F4F0E94A20482E051
:1010600060E00E944405FE01E058FF4F9F0143E00D
:1010700051E086E0DA010D90AD01D9010D929D019C
:101080008150C1F736968AE0DF011D928A95E9F713
:10109000CE0180589F4F0E94A2048FEF9FEF20E95E
:1010A00031E0F9013197F1F70197D9F781E00E941A
:1010B000B8040E94200680E197E220E931E0F901BE
:1010C0003197F1F70197D9F70E94B305182F80E106
:1010D00097E220E931E0F9013197F1F70197D9F76B
:1010E000193199F081E060E00E944405812F0E944F
:1010F000160480E593EC20E931E0F9013197F1F72E
:101100000197D9F7113309F40F5F81E00E94B80409
:1011100081E060E00E9444059E0120573F4FD901C5
:10112000E3E1F1E08CE001900D928150E1F7F901EB
:101130001486158616861786CE0180579F4F0E940B
:10114000A20482E060E00E944405DE01A056BF4F89
:10115000E3E2F1E080E101900D928150E1F7CE01F0
:1011600080569F4F0E94A2048FEF9FEF20E931E04D
:10117000F9013197F1F70197D9F781E00E94B8049E
:1011800081E060E00E9444059E0120553F4FD90157
:10119000E4E3F1E08CE001900D928150E1F7D90198
:1011A0001C961D921D921D921C921F97CE01805578
:1011B0009F4F0E94A20482E060E00E944405FE016D
:1011C000E054FF4F9F0144E451E08AE0DA010D90C2
:1011D000AD01D9010D929D018150C1F73A9686E08B
:1011E000DF011D928A95E9F7CE0180549F4F0E943E
:1011F000A2048FEF9FEF20E931E0F9013197F1F779
:101200000197D9F781E00E94B8040E94200680E18E
:1012100097E220E931E0F9013197F1F70197D9F729
:101220000E94B305182F893199F081E060E00E9497
:101230004405812F0E94160480E593EC20E931E0FB
:10124000F9013197F1F70197D9F7113309F40F5FDD
:1012500081E00E94B8049E0120533F4FD901E4E58C
:10126000F1E08FE001900D928150E1F7F9011786CE
:10127000CE0180539F4F0E94A20482E060E00E9452
:101280004405802F805D0E94160482E061E00E9488
:101290004405FE01E052FF4F9F0144E651E086E025
:1012A000DA010D90AD01D9010D929D018150C1F778
:1012B00036968AE0DF011D928A95E9F7CE018052C9
:1012C0009F4F0E94A2048FEF9FEF20E931E0F901C8
:1012D0003197F1F70197D9F7CD5FDE4F0FB6F8944C
:1012E000DEBF0FBECDBFCF91DF911F910F9108954B
:1012F0000E944E06FDCF991B79E004C0991F9617F6
:1013000008F0961B881F7A95C9F780950895AA1B47
:10131000BB1B51E107C0AA1FBB1FA617B70710F0E0
:10132000A61BB70B881F991F5A95A9F78095909512
:10133000BC01CD01089597FB092E05260ED057FD5F
:1013400004D014D00AD0001C38F450954095309544
:1013500021953F4F4F4F5F4F0895F6F79095809539
:10136000709561957F4F8F4F9F4F0895A1E21A2E80
:10137000AA1BBB1BFD010DC0AA1FBB1FEE1FFF1F39
:10138000A217B307E407F50720F0A21BB30BE40B89
:10139000F50B661F771F881F991F1A9469F76095D0
:1013A0007095809590959B01AC01BD01CF0108958A
:0413B000F894FFCFDF
:1013B40044657574790000000000000000000057C7
:1013C400454C434F4D45000000000000000053749D
:1013D4006172742047616D65210000000000000007
:1013E4000000546F646179206973204D6F6E6461ED
:1013F400792E0041667465722036312064617973F8
:10140400203A00312D53756E6461790000000000AC
:10141400000000322D53617475726461790000001C
:10142400000000323920323720323420323020316B
:10143400350000776861742773206E657874203FE7
:10144400000000312D2039000000000000000000E1
:10145400000000322D2031300000000000000000A8
:1014640000000077686F20697320796F757200003F
:101474000000006661766F75726974652073696E29
:1014840067657200312D20416D72204469616200EC
:1014940000000000322D2073687265656E00000044
:1014A400000000007468652073636F7265206973BF
:1014B400203A0000202F203320000000000000000C
:1014C400000000003738392F3435362A3132332DB5
:0414D4002A303D2B52
:00000001FF
